:020000040800F2
:10000000D8180020A5020008592F00083D2100083B
:10001000452500082D1A00086F4D0008000000005B
:10002000000000000000000000000000673300082E
:10003000AD1F00080000000039310008E935000854
:10004000C9020008C902000849360008C9020008B0
:10005000C9020008C9020008C9020008C902000854
:10006000C9020008C9020008C9020008C902000844
:10007000C9020008C9020008C9020008C902000834
:10008000C9020008C9020008C9020008C902000824
:10009000C9020008C9020008C9020008C902000814
:1000A000C9020008C9020008C90200084D3600084C
:1000B000BD360008C9020008C9020008C9020008CC
:1000C000C9020008C9020008C9020008C9020008E4
:1000D000C9020008C9020008C9020008C9020008D4
:1000E000C9020008C9020008C9020008C9020008C4
:1000F000C9020008C9020008C9020008C9020008B4
:10010000C902000815330008C9020008C902000826
:10011000C9020008C9020008C9020008C902000893
:10012000C9020008C9020008C9020008C902000883
:10013000C9020008C9020008C9020008C902000873
:10014000C9020008C9020008C9020008E92F000816
:10015000C9020008C9020008C9020008C902000853
:10016000C9020008C9020008C9020008C902000843
:10017000C9020008F52F0008C9020008C9020008DA
:10018000C9020008C902000800F002F800F07BF87C
:100190000AA090E8000C82448344AAF10107DA45E2
:1001A00001D100F070F8AFF2090EBAE80F0013F0B9
:1001B000010F18BFFB1A43F001031847E06C000061
:1001C000006D00000A444FF0000C10F8013B13F0E2
:1001D000070408BF10F8014B1D1108BF10F8015BA0
:1001E000641E05D010F8016B641E01F8016BF9D193
:1001F00013F0080F1EBF10F8014BAD1C0C1B09D1EA
:100200006D1E58BF01F801CBFAD505E014F8016B5B
:1002100001F8016B6D1EF9D59142D6D370470000ED
:100220000023002400250026103A28BF78C1FBD8FF
:10023000520728BF30C148BF0B607047662905F0E0
:10024000A087692900F09480752900F091807829B1
:1002500000F0CA80732900F0B884002070471FB5F1
:1002600005F08AFF00F0FAFC04000020002105F0F0
:100270009DFA401C60600020002105F081FAE060DA
:100280001FBD10B510BD00F035FE1146FFF7E7FFAA
:1002900005F0D0F800F061FE03B4FFF7F2FF03BCF5
:1002A00000F0A2FE0C48016841F4700101600B48A7
:1002B00080470B480047FEE7FEE7FEE7FEE7FEE764
:1002C000FEE7FEE7FEE7FEE7FEE700000548064919
:1002D000064A074B7047000088ED00E0ED35000846
:1002E00089010008D8120020D8180020D814002056
:1002F000D81400200FB41CB5074B06AA7B446946EE
:100300000090059800F037FC0020694600F046FC9C
:100310001CBC5DF814FB00009D08000070B50C4685
:100320000546012A05D02878800600D5EA69002311
:1003300002E0012305E05B1C934202D2E05C00284E
:10034000F9D1A869E618C01AA861286A1844286279
:100350002846AFF3008004E0D5E9012114F8010B31
:100360009047B442F8D32846AFF3008070BD000038
:100370002DE9F0410646002410687529314616A57E
:1003800011D0AFF30080002803DAC0F1000013A5FC
:1003900007E031688A0701D511A502E0490704D5B5
:1003A00010A5012401E0AFF3008000210A2306F12B
:1003B000240707E0B0FBF3F203FB1200303078545F
:1003C0001046491C0028F5D123462A463046BDE890
:1003D000F04100F05EB90000000000002D000000B8
:1003E0002B0000002000000070B504460D46214699
:1003F0001068AFF300802188090502D5104A7A44BD
:1004000002E00F4A7A440E32002104F1240307E08F
:1004100000F00F064FEA1010965D5E5401F10101E5
:100420000028F5D103462078000704D5702D02D0AE
:1004300009B1113202232046BDE8704000F029B90D
:10044000866900002DE9F05F894604464FF0000AF6
:10045000DFF828B1FB44C0F820A02046E1688847B7
:1004600000287CD0252806D0D4E901219047206AB5
:10047000401C2062F1E700255F462046E16888477E
:100480002028064608DB312E06D207EB060010F8BE
:10049000200C08B10543F0E7A80701D525F00405B5
:1004A000C4F81CA00027C4F818A02A2E09D0304692
:1004B00004F068FF38B304EB8708303EC8F81860D2
:1004C00019E059F8041B204604EB87029161E168AA
:1004D0008847012F064618D1E069002820DA25F068
:1004E00020051DE0D8F8180000EB800006EB400066
:1004F0003038C8F818002046E1688847064604F0FE
:1005000041FF0028EED1012F0AD02E2E08D120461F
:10051000E16888477F1C0646022F45F02005C4DBB2
:10052000A069002803DA404245F00105A061E80710
:1005300001D025F0100596B1A6F14100192802D886
:10054000203645F400654A463146204625604D4632
:10055000FFF774FE60B1012807D0ED1D00E009E04F
:1005600025F0070000F1080977E705F1040974E7B1
:10057000304679E7206ABDE8F09F00005869000026
:1005800070B5064600F076F80468054630460A2243
:10059000002100F01EFB2C6070BD40EA0103024602
:1005A00030B59B0710D14FF0013400E008C208C9F4
:1005B0001D1B9D4315EAC41FF8D013F0FF0102F87C
:1005C000011B0DD01B0AF8E711F8013B002B02F8C4
:1005D000013B05D011F8013B002B02F8013BF3D1A0
:1005E00030BD10B5431C02E010F8011B71B181074A
:1005F000FAD14FF0013202C88C1A8C4314EAC211AE
:10060000F9D0C01A0A0603D0C01E10BDC01A10BD12
:100610000A0401D0801E10BD0902FCD0401E10BD8E
:100620004FF0000200B5134694469646203922BF8B
:10063000A0E80C50A0E80C50B1F12001BFF4F7AFD6
:10064000090728BFA0E80C5048BF0CC05DF804EBB8
:10065000890028BF40F8042B08BF704748BF20F826
:10066000022B11F0804F18BF00F8012B7047704724
:1006700070477047004870477412002010B5FFF7AC
:10068000F9FF006810BD10B50446FFF7F3FF0460E2
:1006900010BD2DE9F0470D4699469246044600F1FB
:1006A00024080168880604D5E06921F01001216062
:1006B00000E00120A84202DDA0EB050700E00027D2
:1006C000A16907EB050202EB0900A1EB0000A061A4
:1006D0002078C00602D42046AFF30080002608E050
:1006E000D4E901211AF806009047206A401C761CC4
:1006F00020624E45F4DB2078C0060AD52046AFF3D1
:10070000008006E0D4E9012130209047206A401C97
:100710002062381EA7F10107F4DC07E0D4E90121CB
:1007200018F805009047206A401C2062281EA5F199
:100730000105F3DC2046AFF300802078000602D5E7
:100740000220BDE8F0870120FBE770472DE9FF4F4D
:100750000C461E464FF0FF378BB0D2E90001DDF8A2
:1007600060800A908A46C1F30A5505B93D460021CA
:1007700008464FF00000BAF1000F00F4400005DA1F
:1007800000EB80004FF4400101EA50004FEA90591D
:10079000B9F1010F00DDB9460A9850EA4A000ED0BF
:1007A00044F61050A5F2FF3545432F14B8F1000F61
:1007B0001ED07542291E1EDDC9F100021CE0B8F1F1
:1007C000010F4FF0000001D0302103E0F24305E0BB
:1007D0002154401CB042FBDB304600220021215452
:1007E0000B99C1F80880C1E900200FB0BDE8F08F77
:1007F000BD1B6D1CDEE74A4600DA694206A800F020
:1008000007FB06AB07CB03AB07C350460A9900F0C2
:10081000F2FB8DE80700A0F500501F380090039808
:10082000002D09DD42F21F014A46084403A9039046
:10083000684600F051FE08E0A0F500504A461F3817
:1008400003A90390684600F05BFE8DE807000004F2
:10085000000C03D04FF0FF30410800E01046B8F123
:10086000000F03D00022009215461FE0751E06D42B
:1008700000F0F8F902F1300262556D1EF8D5B3466A
:100880000122084302D000227F1C04E02078302897
:1008900001D100227F1E002A099787D01DE0112D6B
:1008A00007DA00F0DFF9303262556D1C50EA0102C0
:1008B000F5D108430FD10021681E05E0235C625C7E
:1008C0006354491C2254401E8142F7DBAB46A81BEF
:1008D000401E099001E0009848B1002004F80B0088
:1008E0000B98099AC0F80880C0E9002B7DE7112613
:1008F0004FF000085AE72DE9F04F88460446D21D14
:1009000022F0070191B0D1E90001CDE90A0104F01C
:10091000B1FA02460B98C00F01D02D2007E02068E5
:10092000810701D52B2002E0202101EAC000032A23
:10093000099001D0072A05DB03464146204600F016
:10094000D7F90FE12078800601D5E06900E00620A4
:10095000B8F1650F814606D0B8F1660F18D0B8F12E
:10096000670F72D132E00020B9F1110F009001DB66
:10097000112301E009F101030AAA01A90CA8FFF75C
:10098000E5FEDDE90C70002609F10105834648E02B
:1009900001204B4600904FF000470AAA01A90CA87D
:1009A000FFF7D4FEDDE90DB00C995D46002618B9BD
:1009B00009F1010001EB0005B9EB050003D4C0F11A
:1009C000FF3609F10105A5EB09002BE0B9F1010F94
:1009D00001DA4FF001090020B9F1110F00904846EB
:1009E00001DD112300E003460AAA01A90CA8FFF7C4
:1009F000ADFEDDE90C704D460026834620780007E9
:100A00000AD4AB4500DA5D4601A8012D04DD411989
:100A100011F8011C302907D04F4502DA17F1040FF5
:100A200004DA0120824610E06D1EEEE7002F02DCA2
:100A3000ED1B3E4403E0781CA84200DD0546A7EB11
:100A4000060000F1010A4FF000472078000703D4A8
:100A5000AA4501DB4FF0FF3A0021B7F1004F0DF13D
:100A600043088DF8431023D002202B23002F01DAF6
:100A70007F422D234FF00A0C011EA0F1010000DC83
:100A80004FB197FBFCF10CFB11720F4602F13002E3
:100A900008F8012DF0E7A8F101000370218809058D
:100AA00001D5452100E06521A0F1010800F8011CF5
:100AB00009980FA9A1EB080707F1070700B101206A
:100AC00000EB050101EBEA70A1693844A1EB0000DD
:100AD000A0F10100A0612078C00602D42046AFF347
:100AE0000080099830B1D4E901219047206A00F1D3
:100AF000010020622078C00620D52046AFF3008098
:100B00001CE0002E04DBB34502DD01A8805D00E09F
:100B10003020D4E901219047206A761C401CBAF1AC
:100B2000010A20620AD100F099F8C0680168405CAF
:100B3000D4E901219047206A401C2062281EA5F1BB
:100B40000105DEDC07E0D4E9012118F8010B90472C
:100B5000206A401C2062381EA7F10107F3DC204602
:100B6000AFF30080022011B040E6000001694A1C8A
:100B700002610878704700B58FB0CDE901310021DE
:100B8000059105497944CDE9031011466846FFF700
:100B900059FC0FB000BD0000E5FFFFFF0A6802F836
:100BA000010B0A60704710B5436913B1AFF30080C1
:100BB00001E0FFF7B3FB012010BD127800F1240122
:100BC0000A7000224A700122EDE711684FF0FF32EF
:100BD000E9E72DE9F04791460F4680460446002696
:100BE00014F8015B2DB100F031F80068405DC007DA
:100BF000F6D12B2D02D02D2D18D0641E4A46394631
:100C0000204600F0B5F827B13968A14201D1C7F8F4
:100C100000804FF0020471050BD54042002803DD2F
:100C2000FFF728FD0460A007BDE8F08746F4806662
:100C3000E4E70028F8DAFFF71DFD04606FF00040DC
:100C4000F2E70000004870477412002010B500F071
:100C500005F8001D10BD00BF554B0000004870474F
:100C60009412002030B5B0F10A024FEA900E71F1F3
:100C700000034EEA817EB0EB0E0061EB91014FEA7A
:100C8000101E4EEA017E10EB0E0041EB11114FEAEF
:100C9000102E4EEA016E10EB0E0041EB11214FEACF
:100CA000104E4EEA014E10EB0E0041EB1141401880
:100CB00041F100014FEAD00040EA41704FEAD10112
:100CC00010EB80054FEA810444EA907444EB010480
:100CD0006D1944EB0404521BA3414FF0000348BFBD
:100CE0000A3200D530BD401C41F1000130BD00008A
:100CF0002DE9F0411F46044603260168072A01F446
:100D0000006004DB08B116A505E016A503E008B1F4
:100D100015A500E015A521F010002060A069C01EF7
:100D2000A0610FB1401EA0612046AFF300804FB11B
:100D3000D4E9012138469047206A401C2062C01C3B
:100D4000206206E0206AFAE7D4E9012115F8010BD8
:100D50009047761EF8D22046AFF30080BDE8F081C0
:100D60004E414E006E616E00494E4600696E66004F
:100D70002DE9F05F824615468B4600270AF10104F3
:100D8000B9460078302801D09DB113E014F8010B6A
:100D90000127782803D0582801D045B10AE00DB1C9
:100DA000102D07D1002714F8010B102502E00825AB
:100DB00000E00A250026B0460EE005FB080005FB12
:100DC00006F101271FFA80F801EB1046B6F5803FC7
:100DD00000D3B94614F8010B294600F0B0F80028FA
:100DE000EBDABBF1000F05D00FB1641E00E05446F2
:100DF000CBF80040B9F1000F06D0FFF73BFC022111
:100E00000160C81EBDE8F09F48EA0640FAE700000E
:100E10002DE9F047814616468AB035487844D0E936
:100E2000002380680092CDE90130314878440C38C5
:100E3000D0E90223006903924FF03702CDE9043074
:100E400041F69B30014491FBF2F0A0F1800502FBDA
:100E500010141B3C02D56442012000E00020DFF8A2
:100E600090A080460027FA44AAF1C60A0DE0E007E8
:100E700009D03246684607EB47010AEB810100F0D2
:100E80003FFB8DE8070064107F1C002CEFD1184F4A
:100E90007F44B43F17E0E80713D007EB04100DF1CF
:100EA000180A90E80E00AAE80E00C068F04201D1CE
:100EB00098190890324606A903A800F021FB03AB5D
:100EC00007C36D10641C002DE5D132466946B8F1A8
:100ED000000F03A802D000F0FFFA01E000F010FBC1
:100EE000C9E90001C9F808200AB0BDE8F087000090
:100EF000646000007546FFF7A5FEAE460500694632
:100F0000534620F00700854618B020B5FFF7DEF9FC
:100F1000BDE820404FF000064FF000074FF00008FA
:100F20004FF0000B21F00701AC46ACE8C009ACE87B
:100F3000C009ACE8C009ACE8C0098D4670473A2842
:100F400000D2303820F02002412A01D3A2F137002C
:100F5000884201D34FF0FF3070470446AFF3008062
:100F60002046FFF799F900004FF0013C50F8042BA0
:100F700051F8043B9A4221D1A2EB0C03934313EAAC
:100F8000CC1317D150F8042B51F8043B9A4215D1D9
:100F9000A2EB0C03934313EACC130BD150F8042BB0
:100FA00051F8043B9A4209D1A2EB0C03934313EA94
:100FB000CC13DBD04FF00000704700BFD01A01BA4D
:100FC000B1FA81F101F0180122FA01F0CB40C1F130
:100FD0002001DBB2C0B2C01A2CFA01F3D11A91433E
:100FE00011EAC311E6D1704701491820ABBEFEE7F4
:100FF0002600020070475FEA400C08BF91F0000F26
:101000004FEA8C234FEAC12243EA51514FEA1C5068
:1010100018BF00F5F0404FEA300018BF41F0004122
:101020005FEA6C5C00F02980BCF1FF3F08BF40F034
:1010300080407047130C06BF12044FF0100C4FF0A5
:10104000000C130E04BF12020CF1080C130F04BFA6
:1010500012010CF1040C930F04BF92000CF1020C6E
:10106000D30F04BF52000CF1010C11464FF00002E7
:10107000A0F11F00A0EB0C00704711F0004F08BF5B
:10108000704731F000413FF4D5AF0B0C06BF0904A7
:101090004FF0100C4FF0000C0B0E04BF09020CF1C6
:1010A000080C0B0F04BF09010CF1040C8B0F04BFDB
:1010B00089000CF1020CCB0F04BF49000CF1010CAC
:1010C000CCF12003A0EB0C0022FA03F302FA0CF29D
:1010D00041EA030100F10100704720F07F4C80EAF3
:1010E000030023F07F47ACEB070303F57C5300F0CC
:1010F000004003F1FF032DE980494FEA154B09B485
:101100004FEA144325EA0B4E24EA03480FF2042663
:1011100006EB132749083E785FEA320203FB0667B5
:10112000C7F5000707FB06F64FEA54374FEAD646E5
:1011300006F1020607FB066CCCF1005C4FEA1C4787
:101140002CEA074C07FB06F40CFB06F504EB1546EE
:101150004FEA961634BF00204FF000404FEAD137D7
:1011600006FB07FC4FEA1C4C0CFB0BF7D21B03FBE6
:101170000CF761EB07010CFB0EF7B0EB074072EBCD
:1011800017420CFB08F734BFA2EB0742B2EB074251
:1011900061EB17414FEA0C444FEA910706FB07FC4D
:1011A0004FEA1C4C0CFB0BF7B0EBC74072EB57320D
:1011B00003FB0CF734BFA2EBC742B2EBC74261EBB3
:1011C00057310CFB0EF7B0EBC70072EB57720CFBFC
:1011D00008F734BFA2EBC702B2EBC70261EB57714D
:1011E000039F4FEA816141EA921104EBCC044FEA7C
:1011F000D1374FEA826206FB07FC42EA90124FEABF
:1012000080604FEA1C4C0CFB0BF7D21B03FB0CF766
:1012100061EB07010CFB0EF7B0EB074072EB1742D6
:101220000CFB08F734BFA2EB0742B2EB074261EBBD
:1012300017414FEA8C554FEA910704EB9C2406FBBB
:1012400007FC4FEA1C4C0CFB0BF7B0EBC74072EBF2
:10125000573203FB0CF734BFA2EBC742B2EBC742D5
:1012600061EB57310CFB0EF7B0EBC70072EB577216
:101270000CFB08F734BFA2EBC702B2EBC70261EB6D
:10128000577115EB4C254FEA816141EA92114FEA03
:1012900082624FEAD13742EA901206FB07FC44F122
:1012A00000044FEA80604FEA1C4C0CFB0BF7D21B8A
:1012B00003FB0CF761EB07010CFB0EF7B0EB0740EB
:1012C00072EB17420CFB08F734BFA2EB0742B2EBFC
:1012D000074261EB174115EB1C154FEA813141EADA
:1012E00092414FEA823242EA90424FEA80304FEA1E
:1012F0000C7644F1000448EA03434EEA0B484FF0F1
:10130000000EB2EB080C71EB030724BF62463946AE
:101310004EEB0E0E4FF0000B0018524149414BEBC3
:101320000B0BB2EB080C71EB03077BF1000B24BF36
:10133000624639464EEB0E0E4FF0000B001852413C
:1013400049414BEB0B0BB2EB080C71EB03077BF144
:10135000000B24BF624639464EEB0E0E51EA0207DF
:1013600018BF46F0010616EB0E7655F1000254F157
:10137000000103D5BDE88901BDE80088BDE8890109
:10138000BDE80048B619524141EB0101A3F1010348
:10139000704780807F7E7D7C7B7A797877767675E2
:1013A0007473727171706F6E6E6D6C6C6B6A6A695A
:1013B0006868676666656464636362616160605FF4
:1013C0005F5E5E5D5D5C5C5B5B5A5A59595858576D
:1013D00057565655555554545353525252515150D5
:1013E00050504F4F4F4E4E4D4D4D4C4C4C4B4B4B28
:1013F0004A4A4A494949484848474747474646466E
:1014000045454544444444434343434242424241A8
:101410004141002B26D4770021D01CB54FEA370775
:1014200003B44FF010004FF010014FF000000FBC5C
:10143000BDE810400BF1010BBBF1010F08BF5FEAE3
:10144000170722BF12F1010211F101014FF0004113
:1014500043F1000300F0004043EA00007047F9D375
:101460005708DAE746EA064613F1400F4FEA1646F8
:101470001FDD13F1200FDFBF16430A460021203382
:101480005B42C8D0C3F1200746EA064602FA07F7D6
:101490004FEA164646EA0706C3F1200722FA03F28E
:1014A00001FA07F721FA03F14FF0000342EA0702BD
:1014B000B1E746EA020646EA06464FEA164646EA1B
:1014C0000106BCBF46EA0646360C4FF000034FF05B
:1014D00000024FF000019EE72DE9C048934630B46A
:1014E00091E8380007C831EA400C48BF34EA430CA1
:1014F00003D5FFF7F2FDFFF78CFFF0BCBDE80088D5
:101500002DE9C048934630B491E8380007C810F080
:10151000804F08BF13F0804F03D100F005F8FFF7AC
:1015200078FFF0BCBDE8008820F07F4780EA030028
:1015300023F07F4C07EB0C03A3F57C5300F0004035
:10154000A3F1FE0392F0000F00F0B38095F0000FBE
:1015500000F077802DE901494FEA11404FEA144627
:1015600021EA004800FB06FC24EA064708FB06F6D1
:1015700007FB08F800FB07F718EB06484CEB164C86
:101580004FEA124B18EB07484FEA15464CEB174051
:1015900022EA0B4E0BFB06FC25EA06470EFB06F67D
:1015A00007FB0EFE0BFB07F71EEB064E4CEB164C33
:1015B0004FF000061EEB074E4CEB174B18EB0B08D9
:1015C00040F1000018EB0E0B58EB000840F1000052
:1015D0008F1A4FF000013CBFC943661B14BFB5EB27
:1015E000040C00213CBFC943F61B4FEA17444EEAE6
:1015F0008E0E27EA04454FEA1C4704FB07622CEADB
:10160000074C05FB07F70CFB05F604FB0CFC16EB7F
:10161000074642EB174216EB0C4642EB1C421BEB13
:10162000060658EB0202414146EA9E0601D5BDE896
:101630000189B619524141EB0101A3F10103BDE853
:1016400001894FEA14454FEA114724EA054621EA89
:10165000074C05FB07F406FB07F70CFB06F105FB3F
:101660000CFC11EB074144EB17444FEA124711EB16
:101670000C4144EB1C4422EA074C05FB07F206FB35
:1016800007F70CFB06F605FB0CFC16EB074642EBD6
:10169000174216EB0C4642EB1C456A1854F1000148
:1016A00048BF7047B619524141EB0101A3F1010354
:1016B000704795F0000F37D04FEA11424FEA1447B8
:1016C00021EA024624EA074C02FB07F106FB07F772
:1016D0000CFB06F402FB0CFC14EB074441EB174136
:1016E0004FEA154714EB0C4441EB1C4125EA074C2B
:1016F00002FB07F506FB07F70CFB06F602FB0CFCEA
:1017000016EB074645EB174516EB0C4645EB1C421E
:10171000121951F1000148BF7047B619524141EB0F
:101720000101A3F1010370474FEA14454FEA114745
:1017300024EA054621EA074C05FB07F106FB07F7FB
:101740000CFB06F24FF0000605FB0CFC12EB074207
:1017500041EB174112EB0C4251EB1C4148BF704763
:10176000921841EB0101A3F1010370470029816840
:1017700002D041F0010101E021F0010181607047D8
:10178000074B10B51A6807490A40D0E900142143F5
:10179000D0E90240044321431143196010BD000009
:1017A00004230140E030FCFFC06C80B27047024669
:1017B000002012680A4200D00120704730B542680C
:1017C0000F4B0C791A400B6842EA04221343436022
:1017D00082680C4B4D791A40D1E9034323438C684E
:1017E00044EA4504234313438360C26A097D22F41B
:1017F0007002491EC9B242EA0151C16230BD000007
:10180000FFFEFFFCFDF7FFC070B5072409290AD9C8
:10181000C568A1F10A0606EB4606B440A543B340ED
:101820001D43C56007E0056901EB4106B440A543CF
:10183000B3401D4305611F23072A09D2446B521E82
:1018400002EB820293409C4391400C43446370BD81
:101850000D2A09D2046BD21F02EB820293409C43F3
:1018600091400C43046370BDC46A0D3A02EB8202DE
:1018700093409C4391400C43C46270BD816841F029
:10188000804181607047000010B5074C2060084619
:1018900000F00CF820680028FCD1BDE810400021C1
:1018A0004FF0804001F024BF040000203EB5044604
:1018B0004FF080450021284601F01AFF0022012147
:1018C000284601F036FF022C02D0012C02D004E0A1
:1018D0000B2001E042F6DF6001900520ADF800002A
:1018E0000020ADF80800ADF802006946284601F076
:1018F0005BFF0121284601F0F8FE0121284601F096
:10190000DFFE01221146284601F013FF012128467F
:1019100001F0EEFE3EBD000078B5002400940E4CB0
:1019200029250E4E216025812A2536684D43B6FBB8
:10193000F5F56D1E00EE105AB8EE400ABCEEC00A76
:1019400010EE105AADB2A5806D08E5806281237358
:10195000241D1CCC1EC078BD641200208C00002009
:101960000FB470B5002505AC049E0CE035B1012D17
:1019700006D0022D17D0032D04D116E0206800E018
:101980002268241D6D1CB542F0DB012D0FD0022D05
:1019900011D0032D12D0042D02D100BF00F010F899
:1019A00070BC5DF814FB2168EBE72368E9E70023CE
:1019B00001221146F2E700230122EFE70023EDE7C1
:1019C0002DE9F04780464FF4FA70994616460F46C7
:1019D000012502FB00F421E0B8F1010F1AD8B9F19A
:1019E000000F0CD0012001F0BFFC204600F0E0FA0F
:1019F000002001F0B9FC204600F0DAFA0DE0E8071B
:101A000001D0404600E00A2001F0AEFC304600F074
:101A1000DDFA02E00A2001F0A7FC6D1CB5EB470FD0
:101A2000DADDBDE8F0470A2001F09EBCFEE70000C9
:101A300010B50024002001F0E3FB641CE4B2182C74
:101A4000F8D3084C4021204600F040FB012000F074
:101A5000CBFA4021204600F03BFBBDE810400120BE
:101A600000F0C2BA0000024010B50A460C0601F0B0
:101A70007F0303EB830100EBC10102D501F58E71F9
:101A800001E001F55D71D2090B704A7002F06AFF46
:101A9000002010BD0A4610B5090602F07F0306D5E6
:101AA00003EB830100EBC10101F58E7105E002EB50
:101AB000820100EBC10101F55D7100248C700B7097
:101AC000D2094A7002F035FF002010BD70B50C46F7
:101AD0000E0601F07F0505EB850100EBC10102D583
:101AE00001F58E7101E001F55D71E4090D704C7036
:101AF0008A60CB7000D0CD80022B01D100220A7108
:101B000002F0EEFE002070BD10B501F07F0404EB82
:101B1000840100EBC10101F55D714B61CA600023D6
:101B20008B614B700C70C378012B00D10A6114F0EB
:101B3000FF0F03D002F048FF002010BD02F062FE4C
:101B4000FAE70069002261F30A120168114301609B
:101B500070470A4610B5090602F07F0306D503EB6D
:101B6000830100EBC10101F58E7105E002EB8201FA
:101B700000EBC10101F55D7101248C700B70D2097D
:101B80004A7002F009FF002010BD70B511F07F040B
:101B900004EB840100EBC10101F58E714FF00105EA
:101BA0004D700C70CA600A614FF00002C1E9053245
:101BB00003D002F009FF002070BD02F023FEFAE717
:101BC0002DE9F0410646002503F023F8074655E0CD
:101BD000F80751D03069EAB20369416BD14006EB96
:101BE000820201F00101926943EAC11194680C403C
:101BF000E1071AD00124426B04FA05F18A434263DB
:101C000006EB8500806984601F48E9B2006842687D
:101C100030469047F078012807D135B996F8110180
:101C2000042802D1304602F049FE200704D506EB15
:101C30008500082480698460E00604D506EB8500F1
:101C4000102480698460600604D506EB850040247A
:101C500080698460A00704D506EB850002248069B2
:101C60008460200608D52946304600F062F906EB6C
:101C700085018020896988606D1C7F08002FA7D1AD
:101C80000120BDE8F0810000D00000202DE9F041E6
:101C90000646002402F0C3FF0746DFF8988043E0C1
:101CA000F8073FD0E1B2304602F0BFFF0546C0075B
:101CB00025D006EB84000125416D8D60F178012966
:101CC0000CD1406D016904EB840006EBC000C1F348
:101CD0001201D0F87C23511AC0F88C13D8F80000F8
:101CE000E1B2026830469047F078012807D134B954
:101CF00096F81101052802D1304602F0DFFDA80751
:101D000004D506EB84000225406D8560280709D5BF
:101D1000D8F8000081683046884706EB8401082027
:101D2000496D8860641C7F08002FB9D10120BDE88F
:101D3000F0810000D000002070B50646C0688169BF
:101D400021F010018161F068056A05F00F0000EBD9
:101D5000800006EBC004C5F3434004F55D7407281A
:101D600021D2DFE800F0202004202020150047F6D3
:101D7000F070054217D0C5F30A152A463046E168CF
:101D800002F05BFFE0682844E060A069284409E0B5
:101D9000082206F2CC51304602F04FFFA069C5F38D
:101DA0000A110844A061F068816941F01001816165
:101DB000012070BD38B5044600208DF8000094F86D
:101DC00012018DF8000015480068416920468847D7
:101DD00020698068E2684FF400615161A17AD1B155
:101DE000C00718D094F81501012814D19DF80000FF
:101DF000032810D1D4F80C01016841F00101016001
:101E0000D4F80C01016841F0030101600448016845
:101E100041F006010160012038BD0000D000002023
:101E200010ED00E070B50446006900250126416808
:101E300021F0010141602946204602F0A3FE002066
:101E4000FF2106E004EB800293699960526D916076
:101E5000401C62788242F5D821694FF0FF308861DA
:101E60002846216966F30F0066F31F40C8612169A7
:101E700045F00B004861216945F00B0008612069BD
:101E8000016821F4FE610160204602F017FDE1685F
:101E90004FF4805048610348006801692046884734
:101EA000012070BDD000002070B5044602F0D6FEBF
:101EB0000122002384F8122184F8143119464025A8
:101EC0000EE000BF01EB810004EBC00000F58E7056
:101ED00042700170C180C370C0E90253491C436164
:101EE00060788842EED800210EE000BF01EB81004F
:101EF00004EBC00202F55D7253701170D180D37093
:101F0000C2E90253491C536160788842EED82046EA
:101F100002F052FC204602F04BFB0021204602F06A
:101F2000FDFE204602F084FB2046BDE8704002F032
:101F300005BE2DE9F0470D46064601EB850006EB90
:101F4000C00404F58E74D4E90501421AA0689042D9
:101F500000D20246D21C970806EB850917E0A0EBD9
:101F60000108A068404500D2804608F103008708B8
:101F70001FFA88F3EAB23046E16802F0E4FEE16855
:101F800001EB0800E060A16901EB0800A061D9F84D
:101F90001800806980B2B84205D9D4E905018142B0
:101FA00001D20028DBD10120BDE8F0877047000096
:101FB00001B54FF47A70009941430348016001680C
:101FC0000029FCD108BD0000A000002001B5044894
:101FD000009941430348016001680029FCD108BD14
:101FE00040420F00A000002001B5034800990160A5
:101FF00001680029FCD108BDA0000020F0B5002335
:10200000012403270D6804FA03F21540954242D1DA
:10201000D0F800C05E0007FA06F52CEA050CC0F8FF
:1020200000C091F804C0D0F800E00CFA06FC4CEABD
:102030000E0CC0F800C091F804C0BCF1010F02D032
:10204000BCF1020F1FD1D0F808C02CEA050CC0F873
:1020500008C091F805C0D0F808E00CFA06FC4CEA7C
:102060000E0CC0F808C0D0F804C02CEA020CC0F86E
:1020700004C0426891F806C00CFA03FC1FFA8CFCFD
:1020800042EA0C024260C268AA43C260CA79C568CB
:10209000B2402A43C2605B1C102BB3D3F0BD4B0788
:1020A000DB0E9A40C90810B500EB8100016A0F24CD
:1020B0009C40A1430162016A1143016210BD0246C6
:1020C000002012690A4200D0012070474183704706
:1020D00001837047F0B417490A78012A0AD0CA6808
:1020E0000025B2F5006F00D1CD60D1E902329A42ED
:1020F00002D10D70F0BC704702D9C2F5006301E057
:10210000A3EB02031C460B61402B96B205D940237A
:102110004032403CC1E9032403E02244C1E90325E5
:10212000A3B201220A7004498A19F0BC8121FFF789
:102130002CBD0000D800002062090020FEE700004E
:102140002DE9FC474FF003098DF805904FF0010889
:102150000025DFF888A18DF804808DF80650AAF1DB
:1021600026068DF807802C4606F10E075AF8240043
:10217000012101F055F836F81400009057F82400BA
:102180006946FFF73BFF36F8141057F82400FFF7B5
:102190009DFF641C14F0FF04E8D00121084601F003
:1021A0003FF84020DFF838A100908DF807506946CD
:1021B0005046FFF723FF40215046FFF789FF0121DA
:1021C000022001F02DF8474F464669463846CDF8C3
:1021D0000080FFF713FF01213846FFF777FF012149
:1021E000022001F01DF80224694638460094FFF7EA
:1021F00005FF02213846FFF769FF0121022001F0A7
:102200000FF820038DF8044000908DF806508DF8EB
:10221000074069463846FFF7F1FE01220D21384696
:10222000FFF73DFF00F0E2F80121084600F0F8FF5B
:10223000A0208DF8044000908DF806508DF80750CE
:1022400069465046FFF7DAFE052207215046FFF7A0
:1022500026FF052211465046FFF721FF00F098F8AF
:10226000FFF7E6FB0121042000F0DAFF20201E4FDB
:1022700000908DF804608DF8075069463846FFF7E6
:10228000BDFE20213846FFF721FF0121042000F088
:10229000C7FF1020009069463846FFF7AFFE1021B7
:1022A0003846FFF715FF00968DF80450694638460A
:1022B000FFF7A4FE0121042000F0B2FF08200090E7
:1022C0008DF804908DF8054069463846FFF796FE74
:1022D00000F030F800F01CF9BDE8FC87A8010020F0
:1022E00000000240000402400008024001B584B032
:1022F000684600F0C5FF042001F06AF904990198CE
:1023000048430A49B0FBF1F0401EB0F1807F0BD288
:102310004FF0E0214861064AF020107000208861EB
:102320000720086105B000BDFEE7000040420F0035
:1023300023ED00E010B501218AB0080200F094FFFF
:10234000002406940794089406A80994FFF718FA45
:102350004FF0C060CDE902408DF8044000948DF844
:10236000054004940120094C8DF81400694620466C
:10237000FFF724FA062301220D212046FFF744FA35
:1023800001212046FFF7F2F90AB010BD00200140FC
:1023900010B5012186B0080300F066FF4FF44040FD
:1023A000ADF800004FF48270ADF802004FF4006009
:1023B000ADF804000020ADF808004FF40071ADF84E
:1023C0000A101821ADF80C10074CADF80600ADF856
:1023D0000E006946204600F0AAFF0121204600F0C9
:1023E0009AFF06B010BD00000030014070B58EB0FD
:1023F0001B208DF8200000248DF821408DF822400C
:1024000001208DF8230008A800F0A8FD012108464E
:1024100000F02AFF002301224FF4166109A8FFF7FC
:102420007BFADDE90A50A9B2ADF81400194E069105
:10243000ADF81C40ADF816408DF81E4005A9304699
:1024400001F0B2F97020ADF800000420ADF80400EE
:10245000280C0290ADF80C400820ADF80E004001A9
:10246000ADF81000ADF80240ADF8124069463046B4
:1024700001F068F90121304601F044F900221146CB
:10248000304601F027F901220221304601F051F9CE
:102490000EB070BD000001402DE9FC41012108464D
:1024A00000F0BEFE01268DF8046000248DF8064081
:1024B0000327DFF854804FF480758DF80570009580
:1024C0008DF8074069464046FFF798FD294640468B
:1024D000FFF7FCFD0121042000F0A2FE8DF804604E
:1024E0008DF806408DF805708DF80740074C6D009B
:1024F000009569462046FFF781FD29462046FFF7F3
:10250000E5FDBDE8FC81000000000240000802403B
:1025100070B50B4D10212846FFF7D8FD0120FFF7BD
:1025200047FD01212846FFF7CAFD30B101241021E3
:102530002846FFF7CDFD204670BD0024F7E70000D8
:1025400000080240FEE700002DE9F04F2DED028B60
:102550009FB00024E8A1F748FEF71FF8F548FEF702
:1025600040F80146F34802F047FCF34DF148294694
:1025700002F0FEFB012002F067FFB0EE408AF0EEB1
:10258000608A002002F060FF8DED008B53EC102B71
:10259000EAA1E848FDF7AEFEE648FEF722F801465C
:1025A000E44802F029FC2946E24802F0E1FBFFF78B
:1025B000AFFF002878D0EBA2EEA1DE48FDF79AFE2F
:1025C000DC48FEF70EF80146DA4802F015FC294611
:1025D000D84802F0CDFB02F02DFC0246EBA1D54815
:1025E000FDF788FED348FDF7FCFF0146D14802F015
:1025F00003FCEDA1CF48FDF7D0FFCE48FDF7F1FF7A
:102600000146CC4802F0F8FB2946CA4802F0B0FB6C
:10261000F4A1C848FDF7C1FFC648FDF7E2FF014637
:10262000C44802F0E9FB2946C24802F0A1FBF3A12D
:10263000C048FDF7B2FFBF48FDF7D3FF0146BD48D4
:1026400002F0DAFB2946BB4802F092FBF4A1B9483C
:10265000FDF7A3FFB748FDF7C4FF0146B54802F0F8
:10266000CBFB2946B34802F083FBF6A1B148FDF746
:1026700094FFB048FDF7B5FF0146AE4802F0BCFB41
:102680002946AC4802F074FBF8A1AA48FDF785FF83
:10269000A848FDF7A6FF0146A64802F0ADFB294673
:1026A000A44802F065FB00E022E0FEA1A148FDF78E
:1026B00074FFA048FDF795FF01469E4802F09CFB81
:1026C00029469C4802F054FBFEA19A48FDF765FF9D
:1026D0009848FDF786FF0146964802F08DFB294693
:1026E000944802F045FB934E0025F94F643605E00F
:1026F000F8A261E76420FFF75BFC3D70307830287A
:10270000F8D0C0B23138DFF8DC83DFF8DCA33D70ED
:102710004FF0010B0DF10809062843D2DFE800F065
:10272000034758EAE9E898F80000F04CF04F4FF4FE
:102730009676D0B10121EF48FFF7C8FC3046FFF78D
:1027400053FC0021204600F0D3FF00221146204612
:1027500000F0C0FF8AF80C5020213846FFF7B6FC85
:1027600088F800500D21E4A01AE020213846FFF738
:10277000AFFC3046FFF738FC0121DE48FFF7A8FC2C
:102780005D4688F800B00121204600F0B1FF042228
:102790000021204600F09EFF8AF80C500F21DAA09D
:1027A00002F02AFB1FB0BDEC028BBDE8F08F98F859
:1027B000010030B188F801500221CE48FFF786FCB5
:1027C000F0E788F801B00221CA48FFF781FCE9E789
:1027D000D1A15848DAF80020FDF78CFD5548FDF7E7
:1027E00000FF0146534802F007FBD2A15148FDF714
:1027F000D4FE5048FDF7F5FE01464E4802F0FCFAC3
:10280000642102A8FDF70CFF2EE0DAA14948FDF78C
:1028100071FD4848FDF7E5FE0146464802F0ECFA36
:10282000642102A8FDF7FCFE3878C0B1317809F8C0
:102830000410641C64B23D7002AAD6A13D48FDF7A5
:1028400059FD3C48FDF7CDFE01463A4802F0D4FA66
:102850000A2C04DD0024642102A8FDF7E1FE307893
:102860000D28E1D13570002402A8FDF789FE3E282D
:10287000CBDD02A8FDF7B5FE09F8005002A8FDF770
:102880007FFE01465446BAF80A2001231BA8FFF731
:1028900043F81BAE0FCE84E80F0000F033FC02A813
:1028A000FDF76EFE0246C0A12248FDF723FD214838
:1028B000FDF797FE01461F4802F09EFAA288BEA1CE
:1028C0001C48FDF717FD1B48FDF78BFE0146194814
:1028D00002F092FAE288BCA11648FDF70BFD1548FC
:1028E000FDF77FFE0146134802F086FA228973E164
:1028F0004DE2C1E17CE100000A2A2A2A2A2A2A2A7A
:102900002A2A2A2A2A2A2A2A2A2A2A2A2A2A2A2A27
:102910002A2A5374617475732A2A2A2A2A2A2A2A8F
:102920002A2A2A2A2A2A2A2A2A2A2A2A2A2A2A2A07
:102930002A000000C4070020004400400A2A2A2080
:1029400054656D70657261747572613A20256620F8
:1029500043656C63697573202D202566204B656C7B
:1029600076696E004E6F2048617920506170656C09
:10297000212121000A2A2A2053656E736F72206478
:102980006520706170656C3A202573000A2A2A2040
:10299000466F6E74204D656D6F72792049443A2000
:1029A00030782578000000000A2A2A2A2A2A2A2AB2
:1029B0002A2A2A2A2A2A2A2A2A2A2A2A2A2A2A2A77
:1029C0002A2A4D656E752A2A2A2A2A2A2A2A2A2A7A
:1029D0002A2A2A2A2A2A2A2A2A2A2A2A2A2A2A0A77
:1029E00000000000312E2D20456E63656E64657217
:1029F00020656C206D6F746F720A0000322E2D20DE
:102A000043616D6269617220446972656363696FD5
:102A10006E20646520726F746163696F6E0A0000D6
:102A2000332E2D2043616D626961722076656C6F73
:102A300063696461642064656C206D6F746F720AF1
:102A400000000000342E2D2043616D626961722008
:102A50004E756D65726F2064652070756C736F7351
:102A60002064656C206D6F746F720A00352E2D2006
:102A7000496D7072696D697220706167696E61205D
:102A8000646520707275656261206861737461208D
:102A90006369657274612074656D706572617475C7
:102AA00072610A00362E2D20496D7072696D69724F
:102AB000206C6F2071756520657363726962650AA9
:102AC000000000004F7063696F6E3A200000000044
:102AD0000800002048617920506170656C21212137
:102AE00000000000000000206412002000000140EF
:102AF0000008024000040240417061676172204D8D
:102B00006F746F720A000000456E63656E646572D3
:102B1000204D6F746F720A004672656375656E634F
:102B200069612061637475616C203D202569200A0C
:102B300000000000496E677265736120656C207645
:102B4000616C6F72206465206C61206672656375CC
:102B5000656E636961202863756C6D696E652063BD
:102B60006F6E20656E746572290A2056616C6F72F3
:102B70003A2000000A496E67726573652056616CE1
:102B80006F726573206D61796F7265732061203695
:102B9000310000000A56616C6F7220537472696EC6
:102BA000673A2025730000000A56616C6F7220504E
:102BB000574D3A20257520000A56616C6F722041EE
:102BC00052523A20257520000A56616C6F722043DC
:102BD00043523A202575200089A18F48FDF78AFBD2
:102BE0008D48FDF7FEFC01468B4802F005F9C9E06F
:102BF000BAF80A2089A18848FDF77CFB8648FDF7D2
:102C0000F0FC0146844802F0F7F88CA18248FDF7F9
:102C1000C4FC8148FDF7E5FC01467F4802F0ECF872
:102C2000B8464F4698F80010C9B131783955641C40
:102C300064B288F8005002AAAFF2A8017648FDF706
:102C400059FB7548FDF7CDFC0146734802F0D4F8F6
:102C50000A2C04DD0024642102A8FDF7E1FC307891
:102C60000D28DFD102A8FDF7BCFC3D5402A8FDF7FA
:102C700087FCAAF80A0085E0012002F0E5FBB0EE2F
:102C8000408AF0EE608A002002F0DEFB8DED008BC2
:102C900053EC102B79A16048FDF72CFB5E48FDF743
:102CA000A0FC01465C4802F0A7F880A15A48FDF755
:102CB00074FC5948FDF795FC0146574802F09CF812
:102CC000B8464F4698F80010E1B131783955641C88
:102CD00064B288F8005002AA7AA14F48FDF70AFBB7
:102CE0004D48FDF77EFC01464B4802F085F8022C6A
:102CF00008DD30780D2808D00024642102A8FDF7F3
:102D00008FFCDFE730780D28DCD102A8FDF769FCE5
:102D10003D5402A8FDF734FC40B202F0D2FF8846D1
:102D2000064623E06EA000F0CDFD41240020E1B274
:102D30003954401C40B21828FADB8DF8205002A804
:102D400000F0C0FD641C64B2602CEFDD002002F0D6
:102D50007BFB53EC102B66A12F48FDF7CBFA2E48D6
:102D6000FDF73FFC01462C4802F046F848EC186B92
:102D7000002002F069FB53EC182B51EC100B02F011
:102D8000CBFFCFD3642102A8FDF74AFC0AE561A17D
:102D90002148FDF702FC2048FDF723FC01461E48B0
:102DA00002F02AF8B8464F4698F80010F9B1317889
:102DB000395588F8005002AA64A11748FDF79AFA1D
:102DC0001548FDF70EFC0146134802F015F8641C87
:102DD000307864B20D2801D0642C08D13D5502A88A
:102DE00000F070FD642102A8FDF71AFC0024307881
:102DF0003028D9D102A8FDF7F4FB3D54C2E700000A
:102E00000A56616C6F72205052455343414C4552F3
:102E10003A20257520000000C40700200A4E756D79
:102E200065726F2064652070756C736F73206163C9
:102E30007475616C203D202569200A000A496E677F
:102E40007265736120656C2076616C6F72206465B9
:102E5000206E756D65726F2064652070756C736F80
:102E600073202863756C6D696E6520636F6E2065D5
:102E70006E746572290A3A20000000000A2A2A208E
:102E800054656D706572617475726120416374750B
:102E9000616C3A2025662043656C63697573202D4B
:102EA000202566204B656C76696E0A000A54656DB4
:102EB0007065726174757261204D6178696D613AF7
:102EC000200A00000A56616C6F7220537472696E9A
:102ED000673A2025732043656C73697573000000A1
:102EE0005052494E54494E47205445535400000017
:102EF0002A2A2054656D7065726174757261204173
:102F0000637475616C3A2025662043656C6369754E
:102F1000730A00000A2A2A2A2045736372696265CF
:102F2000206C6F2071756520717569657261732001
:102F30002865736372696265203020706172612058
:102F400073616C6972292A2A2A200A000A5465785A
:102F5000746F3A20257300007047000070B50F2190
:102F6000C478027801234FF0E026E4B1124C2468C3
:102F700004F4E064C4F5E064C4F30724C4F1040578
:102F8000E1404478AC4085780D4025430B4C290145
:102F90001155007800F01F018B40400906EB8000BE
:102FA000C0F8003170BD02F01F008340500906EBED
:102FB0008000C0F8803170BD0CED00E000E400E05E
:102FC0000249084302490860704700000000FA0502
:102FD0000CED00E0024A11400143024801607047D5
:102FE00080FFFF1F08ED00E0014800F0FFBE000079
:102FF000D0010020704700002DE9F041012186B08A
:10300000480400F025F90121084600F009F90121E2
:10301000084600F005F90121084600F001F90121F8
:10302000084600F0FDF802258DF804500024012622
:103030008DF806400327DFF8C4808DF805700096F0
:103040008DF8076069464046FEF7D8FF8DF80450BA
:103050008DF806408DF8057000958DF8075069468B
:103060004046FEF7CBFF8DF8045004208DF8064053
:1030700000908DF805708DF8076069464046FEF7B0
:10308000BDFF8DF8045008208DF8064000908DF8A3
:1030900005708DF8076069464046FEF7AFFF0722CE
:1030A00002214046FEF7FBFF072203214046FEF7C0
:1030B000F6FF072201214046FEF7F1FF072200211B
:1030C0004046FEF7ECFF4FF4E130ADF80C400290C3
:1030D000ADF80E40ADF81040ADF814400C20084C8F
:1030E000ADF8120002A9204600F052FC0121204652
:1030F00000F044FC06B0BDE8F08100000000024092
:10310000004400403EB588B201900020ADF8002098
:10311000ADF80800074D0C46ADF802008DF80A0026
:103120006946284600F040FB210C284600F03AFB97
:103130003EBD000000000140704700002DE9F0474F
:10314000DFF8B0900F46804600252C461826202137
:103150004846FEF7BDFF05E038F8150000F050F8CE
:103160006D1CEDB2BD4207D2B542F5D304E000209C
:1031700000F046F86D1CEDB2B542F8D31E4D40216B
:103180002846FEF7A3FF0120FEF72EFF4021284628
:10319000FEF79EFF0120FEF727FF184E002506F1DF
:1031A0000E0740F2262800BF36F8141057F8240006
:1031B000FEF78EFF4046FEF717FF36F8141057F85B
:1031C0002400FEF783FF0E20FEF70EFF6D1CEDB20C
:1031D0000A2DE9D3641C14F0FF04F9D00122042065
:1031E000002102F0D7F84846BDE8F0472021FEF75D
:1031F0006DBF000000080240000002408201002074
:1032000010B5064C0146204600F08FF82089800753
:10321000FCD520890006FCD410BD00000030014020
:10322000044A0029116801D0014300E08143116084
:103230007047000030380240044A0029116801D06C
:10324000014300E0814311607047000034380240C0
:10325000044A0029116801D0014300E08143116054
:103260007047000040380240044A0029116801D02C
:10327000014300E081431160704700004438024080
:1032800070B5204A1168204C11F00C0104D01F4E7B
:10329000042903D0082903D004601BE0066019E06C
:1032A0001849091F0B68C3F380550B6803F03F03EF
:1032B00015B1B6FBF3F301E0B4FBF3F30C68096856
:1032C000C4F388146343C1F30141491C4900B3FBB3
:1032D000F1F1016011680F2303EA11110C4B5C5CE2
:1032E0000168E14041601468072505EA94241C5DEB
:1032F00021FA04F48460126805EA52329A5CD140E3
:10330000C16070BD083802400024F40040787D019F
:103310007800002070470029018802D041F0400168
:1033200001E021F04001018070478181704730B594
:1033300002884C8802F441530A88CD8822438C8845
:103340002C4322430C8922434C8922438C892243FB
:10335000CC8922431A430280828B22F4006282834A
:10336000098A018230BD70472DE9F0414FF4807425
:103370000F4D104F660068B1012812D00A2815D1F0
:1033800031463846FEF7A2FE21462846BDE8F04108
:10339000FEF79CBE21462846FEF79AFE3146384687
:1033A000F4E731463846FEF793FEEDE7BDE8F081DD
:1033B00000000240000802400CB50020274901909F
:1033C00000900A6842F480320A604FF4A8530A68F9
:1033D00002F400320092019A521C0192009A12B932
:1033E000019A9A42F3D10A68920334D501200090E1
:1033F0001A484030026842F0805202601848026861
:1034000042F44042026015480830026802600268D7
:1034100042F400420260026842F4A0520260031FBC
:10342000104A1A600A6842F080720A600A689201C3
:10343000FCD50D4A40F205611160016821F00301DD
:103440000160016841F0020101600168C1F381017E
:103450000229FAD10CBD00900CBD000000380240DA
:103460000070004019544007003C0240F0B50121B3
:1034700087B0C803FFF7ECFE01210420FFF7D0FE60
:1034800001210420FFF7CCFE01210420FFF7C8FE34
:1034900001210820FFF7C4FE01210220FFF7C0FE32
:1034A0000420009001208DF804000024334E8DF894
:1034B000064003258DF8055069463046FEF79EFD0F
:1034C00004213046FEF704FE301502268DF8046014
:1034D0008DF806402A4F00908DF805508DF8074072
:1034E00069463846FEF78AFD8DF80460B0028DF813
:1034F000064000908DF807408DF805506946384623
:10350000FEF77CFD8DF80460F0028DF80640009017
:103510008DF807408DF8055069463846FEF76EFD78
:1035200006220C213846FEF7BAFD06220B2138464A
:10353000FEF7B5FD06220A213846FEF7B0FDADF8CC
:1035400008404FF48270ADF80C40ADF81440ADF86F
:103550000A00ADF80E40ADF81040ADF8164030024C
:10356000084CADF8120002A92046FFF7E0FE012149
:103570002046FFF7D0FE07B0F0BD0000000C02406F
:1035800000080240003C00400749FF200880081F57
:1035900002889207FCD50288D207FCD00288120666
:1035A000FCD40888C0B270470C3C00400749088032
:1035B000081F02889207FCD50288D207FCD0028837
:1035C0001206FCD40888C0B2704700000C3C0040D2
:1035D0004FF0E0210428086903D020F004000861BE
:1035E000704740F00400FAE700F0BEB9124810B589
:1035F000016841F4700101601048016841F0010167
:1036000001600E4A00210832116002680C4B1A401A
:103610000260031D0B4A1A60026822F480220260D5
:1036200006480C300160FFF7C7FE03494FF0006009
:103630008039086010BD000088ED00E000380240CD
:10364000FFFFF6FE103000247047000070B5164EE4
:103650000221304600F061F8002824D002213046D3
:1036600000F043F8114C124D207B10B12868401C2B
:10367000286060892968884215D101210D48FEF72C
:1036800025FD0021304600F033F800221146304677
:1036900000F020F8002020732860BDE87040202151
:1036A0000548FEF713BD70BD000001406412002004
:1036B00088000020000402400008024000F056BFCD
:1036C0000029018802D041F0800101E021F0800151
:1036D0000180704710B50423048C8B409C43048404
:1036E000038C8A401343038410BDC9430182704791
:1036F0000029018802D041F0010101E021F001011F
:1037000001807047002930F8441F02D041F4004185
:1037100001E0C1F30E010180704702460020138AC8
:1037200092890B4202EA010202D0002A00D0012055
:103730007047002A828901D00A4300E08A438281CF
:103740007047000030B5028C22F001020284028C26
:103750008388048B22F0020224F073050C882C432A
:103760008D8915434A882A430C4DA84202D00C4D3E
:10377000A8420DD122F00805CA8923F440732A43D8
:1037800022F004058A882A430D8A1D434B8A2B4365
:103790008380048389684163028430BD0000014056
:1037A000000401404163704730B50288164B174C46
:1037B00098420DD0A0420BD0B0F1804F08D0144DEC
:1037C000A84205D0134DA84202D0134DA84203D100
:1037D00022F070054A882A43104DA84206D0104DA9
:1037E000A84203D022F440750A892A4302804A681D
:1037F000C2620A880285984201D0A04201D1897A2A
:1038000001860121818230BD000001400004014099
:103810000004004000080040000C00400010004080
:103820000014004008B51048FFF72AFD0120FEF7FC
:103830005DFDFEF731FE0D4800900B480C4B0D4A24
:103840000121103000F0A9FAFFF7D6FBFFF70EFEBA
:10385000FEF776FC28B1242107A0BDE8084001F05E
:10386000CBBA21210EA0F8E7C00100205C000020A7
:1038700044010020280000204E6F2068617920500C
:103880006170656C20656E206C6120696D70726579
:10389000736F7261203A28202121210A0000000064
:1038A00048617920506170656C20656E206C6120E4
:1038B000696D707265736F7261203A292021212130
:1038C0000A0000002DE9F04700258CB082462E4604
:1038D000FCF787FE87B2781E182190FBF1F0401CA0
:1038E0001FFA80F8E9462EE0204613E01AF800108F
:1038F00020292ED0413901EB41014FF6FF7202EA37
:10390000C101184A2944031B32F8211029F8131069
:10391000401C80B2B84205D2711C01EB4101B0EBF2
:10392000C10FE3D3001BC1B26846FFF707FC6D1C53
:10393000EDB2182DD8D30025761CF6B20122042052
:10394000294601F027FD464508D206EB4600C40093
:10395000CAE70022031B29F81320D9E70CB0BDE801
:10396000F08700008861000803480168002902D040
:103970000168491E01607047A0000020002981896C
:1039800002D041F4005101E021F4005181817047DF
:103990007FB50446008A0D4620F44051E88808436C
:1039A0002082A08941F20C618843A9882A891143A9
:1039B0006A8902431143A181A08A20F44071A88939
:1039C0000843A0826846FFF75BFC1D48844202D092
:1039D0001C48844201D1039800E00298A18909049F
:1039E000002900EBC00101EB0010296802DA4FEA60
:1039F000410101E04FEA8101B0FBF1F26420B2FB2A
:103A0000F0F14FEA01114FEA11136FF018056B4303
:103A100002EB8302A3891D044FF0320306D503EBAA
:103A2000C202B2FBF0F000F0070005E003EB021267
:103A3000B2FBF0F000F00F00084320817FBD0000D2
:103A40000010014000140140C1F30801818070475B
:103A500010B5D0F8E42552689047002010BD10B58D
:103A6000134600240A462146FEF74EF8204610BDB4
:103A700010B5134600240A462146FEF786F8204674
:103A800010BD10B504468021FEF763F800212046E2
:103A9000FEF75FF82046BDE8104000F00FBF10B5FC
:103AA000C0F894230323C0F8902380F81131134603
:103AB00000240A462146FEF727F8204610BD70B5BF
:103AC00005460024052085F811012346224621469B
:103AD0002846FEF719F8284600F0F0FE204670BD93
:103AE00010B5C0F83C210223C0F8382180F811310C
:103AF000134600240A462146FEF747F8204610BD2B
:103B000070B505460024042085F81101234622469D
:103B100021462846FEF739F8284600F0CFFE204619
:103B200070BD000070B5054641B1D5F8E4054269A5
:103B30008AB395F81201032846D047E095F81101A1
:103B4000002605F58E74022833D1E169A068814210
:103B50000FD9081AE061E878012803D1D4E90210EE
:103B60000844E060A08BE16882B22846FFF780FF3E
:103B70001FE0216AB1FBF0F200FB121262B9814230
:103B80000AD3606A814207D2002211462846FFF715
:103B90006FFF66620DE016E0D5F8E405C16829B153
:103BA00095F81201032801D1284688472846FFF7D7
:103BB00086FF95F81601012808D105480068296993
:103BC000486085F8166101E028469047002070BDE6
:103BD000D400002070B5054641B1D5F8E4058269EE
:103BE0000AB395F8120103282CD02DE095F81101A5
:103BF00005F55D74032827D1E169A068814213D9D6
:103C0000081AE061E878012803D1D4E902100844D9
:103C1000E060E169A068814200D2084682B228468D
:103C2000E168FFF71CFF0FE0D5F8E405016929B151
:103C300095F81201032801D1284688472846FFF746
:103C40005FFF01E028469047002070BD10B5044694
:103C5000D0F8E80540698047012084F8150100206C
:103C600010BD10B50446D0F8E80580698047D4F847
:103C7000E4050021426820469047002084F81501A1
:103C800010BD38B5044648880D46010A04295CD2A7
:103C9000DFE801F05B021420D4F8EC15A0780A6884
:103CA000694690470146E888402803D094F81201FD
:103CB000012837D10820ADF8000037E0D4F8E4152A
:103CC000A0788A6A69469047014602204870C4F885
:103CD000F01527E0C0B2062837D2DFE800F003086D
:103CE0000D12171CD4F8EC15A0784A6817E0D4F828
:103CF000EC15A0788A6812E0D4F8EC15A078CA68B0
:103D00000DE0D4F8EC15A0780A6908E0D4F8EC15B9
:103D1000A0784A6903E0D4F8EC15A0788A6969466E
:103D200090470146BDF8000000280DD0E888002823
:103D30000AD0BDF80020904200D91046ADF800002E
:103D400082B22046FFF7CCFE38BD29462046FFF759
:103D500098FE38BD70B5002300281DD0044600250C
:103D600002E06D1CEDB2641C2678002EF9D102240D
:103D700004EB45041480CC545B1C0322CA545B1C26
:103D8000002406E0CA545B1CDAB2401C8C54521C5E
:103D9000D3B20278002AF5D170BD2DE9F0411D465D
:103DA000174688460446069E00F07AFBC4F8E455A0
:103DB00004F5BD65414685E8C0002046FEF774F86D
:103DC0002868006880472046BDE8F04100F054BBF9
:103DD00010B5D0F8E415096A8847002010BD10B569
:103DE000D0F8E415496A8847002010BD2DE9F04756
:103DF0000446002500F0FFFE00287DD0204600F09C
:103E000003FF060079D0300303D52046FDF73EFFBF
:103E10000546700303D52046FDF7D2FE0543B007E3
:103E20004FF0000A02D5E168022048614C4F4FF084
:103E30000109002E17DAA07A30B1D4F80C01D4F8B9
:103E40000C1120F0030008602069416821F0010195
:103E500041603868816920468847E1684FF000403A
:103E6000486145F00105300503D52046FDF7A2FF66
:103E70000543300708D53868C16820468847E1689F
:103E80000820486145F00105F00603D52046FDF7FE
:103E900053FF0543F00403D52046FDF7C3FF054358
:103EA000B0041AD5204600F08FFCE068D0F80C80F2
:103EB000204600F087FE032847D084F80290402176
:103EC00028F47050A18000F5A050E168C860E16856
:103ED0004FF40050486145F00105F00209D53868FB
:103EE000C16920468847E1684FF48010486145F079
:103EF0000105B0020CD501E024E024E03868016A35
:103F000020468847E1684FF40010486145F00105FC
:103F1000700009D53868416A20468847E1684FF04B
:103F20008040486145F0010570070BD5E0684668A0
:103F3000700703D53868816A20468847E068466084
:103F400045F001052846BDE8F08784F802A04FF44B
:103F5000007128F47050A18000F51050B5E7000002
:103F6000D000002090F8CC250A7090F8CD254A703A
:103F700090F8CE2590F8CF3502EB03224A8090F8D6
:103F8000D02590F8D13502EB03228A8090F8D22513
:103F900090F8D33502EB032292B2CA800121C0F817
:103FA000402180F81111704710B5002304464022CB
:103FB0001946FDF78BFD0023402280212046FDF7A6
:103FC00085FD012084F81201D4F8E815A07849682D
:103FD0008847002010BD10B50446D0F8E8050069F8
:103FE0008047032084F81201002010BD10B5D0F8DE
:103FF000E415C96901B18847002010BD10B5044619
:10400000D0F8E405026820469047D4F8E8058068B7
:104010008047002010BD000070B50A461A4D89780F
:1040200004462970012905D894F81201022807D006
:1040300003280CD02046BDE870401146FFF721BD93
:10404000A1B184F81011032084F812010BE091B1A2
:1040500094F81001884209D001462046FFF7F8FC89
:10406000297884F810112046FFF7C8FF2046BDE8E4
:104070007040FFF745BD022084F8120184F810114A
:104080002046FFF7E5FCF1E77001002010B504467B
:104090004888012201280FD0022831D1888810F0E9
:1040A000FF0F2DD121694968000A06281FD2DFE8D9
:1040B00000F01E0B0F13171BC4F81821D4F8E405E9
:1040C00082682046904716E021F0700110310EE022
:1040D00021F0700120310AE021F07001303106E05A
:1040E00021F07001403102E021F0700150310548AB
:1040F000016084F816212046BDE81040FFF700BD9E
:1041000010BD0000D40000201CB504466946FFF72E
:1041100029FF9DF8001011F01F000AD001280DD0D2
:10412000022810D001F080012046FDF712FD00208A
:104130001CBD6946204600F00BF8F8E769462046AA
:1041400000F0E8F8F3E76946204600F079F8EEE77A
:104150002DE9F0414A78002601250A2A42D2DFE8FB
:1041600002F03B554152410805412A27FFF789FDDE
:1041700061E004468888C8B9C888B8B9887800F072
:104180007F0794F81201032810D084F8147139467F
:104190002046FDF7D6FC2046FFF7B2FC1FB10220F7
:1041A00084F8120147E084F8125144E0204619E0F7
:1041B000FFF732FF3FE0CA88012A13D190F812219D
:1041C000022A02D0032A0DD102E001221B4917E086
:1041D000012200F5887113E090F81221022A04D020
:1041E000032A02D0FFF74DFC25E014490839CD60C1
:1041F000D0F818210AB10322CA6010490222091D11
:10420000FFF76EFC17E0FFF741FF14E0044690F85B
:104210001201022801D00328C8D1488801280AD1F8
:104220000020C4F81801D4F8E405826820469047BD
:104230002046FFF765FC3046BDE8F081780100209C
:1042400070B50D46044609796878002658B30128F0
:1042500016D0032831D194F8120102282FD0032858
:1042600027D1688828B921B1802902D02046FDF7DE
:1042700070FCD4F8E40529468268204690470EE099
:1042800094F8120102281AD0032812D16888A0B924
:1042900029B1802903D02046FDF7FCFBE9E7204641
:1042A000FFF72EFC09E094F81201022807D003283A
:1042B0000DD029462046FFF7E4FB304670BD0029AB
:1042C000FBD08029F9D02046FDF743FCF5E71048E4
:1042D0000D064FF000034FF0010208D501F07F01F9
:1042E00001EB810104EBC10191F81E1105E001EB26
:1042F000810104EBC10191F8761309B1426000E03D
:10430000436003490222091D2046FFF7E9FBD4E779
:104310007001002070B5054690F8120100260C4689
:1043200003280DD1207901280AD8D5F8E405826840
:1043300028469047E08830B92846FFF7E1FB02E0C5
:104340002846FFF79EFB304670BD10B500F589701A
:104350000178417004210170D0F8D604C06880470C
:10436000002010BD10B50A46024903A0FFF7F2FC79
:10437000004810BD6211002056435020436F6E6606
:104380006967000070470020FEF7EEBF122008802A
:1043900000487047480000200120FEF7E5BF704745
:1043A0007047704708B5012003460246009000217F
:1043B0000420FDF7D5FA08BD10B50A46024903A04E
:1043C000FFF7C8FC004810BD621100205643502082
:1043D000496E7465726661636500000004200880A0
:1043E000004870474400002010B50A46024903A067
:1043F000FFF7B0FC004810BD6211002053544D6916
:1044000063726F656C656374726F6E6963730000CD
:1044100010B50A46024903A0FFF79CFC004810BDF6
:104420006211002053544D33322056697274756105
:104430006C20436F6D506F727420696E204653205C
:104440004D6F64650000000010B50A46024903A0E4
:10445000FFF780FC004810BD621100203030303082
:1044600030303030303530430000000043200880C9
:10447000004870470001002008B54FF4C060FEF707
:104480009FFD43208DF8000001208DF801000421DC
:104490008DF802108DF803006846FEF75FFD08BD39
:1044A000FEB501210846FEF7BBFE4FF4C0500326BF
:1044B00000908DF8056002208DF8040000252A4F39
:1044C0008DF806508DF8075069463846FDF796FD81
:1044D0000A220B213846FDF7E2FD0A220C2138465C
:1044E000FDF7DDFD8DF8056078158DF80450012489
:1044F00000908DF806408DF8075069463846FDF764
:104500007DFDA0028DF8064000908DF807408DF8E3
:10451000056069463846FDF771FD0A2211463846A6
:10452000FDF7BDFD01218803FEF79EFE01218020DD
:10453000FEF782FE0021E006FEF74CFD4FF4A0607E
:10454000FEF73EFD1C208DF808008DF809408DF81F
:104550000A408DF80B4002A8FEF700FD0121084635
:10456000FEF776FEFEBD00000000024010B50121FE
:104570008C072046FFF7D1F8002809D001212046FA
:10458000FFF7B3F80649086818B10868401E0860CC
:1045900010BD2046BDE810400021FFF7A9B800007B
:1045A000040000200121FDF76FB90221FDF76CB96D
:1045B00070B50446017A0025C068012915D0C1688C
:1045C00041F04001C160204600F0CAF8617A4FF422
:1045D000502009B14FF4E810E16888631420FFF718
:1045E000E1FFE078012819D020E0816B627A21F4A4
:1045F00080310AB141F480118163E068C16821F023
:10460000401121F42021C160204600F0A9F8E07893
:1046100001280BD1E1682A208860E2E7E068816820
:1046200021F01E010A3141F020018160284670BD51
:104630002DE9F04104460027D0F80C013E463546EE
:1046400007602069016821F4C0510160E07A012807
:1046500029D10321204600F0C8FAE0688022426296
:1046600020212846E36861F31F4062F30F0098623F
:1046700000EB104060F30F05E06862F31F45C0F8DF
:10468000045105EB154060F30F05E06861F31F4529
:10469000C0F8085105EB154060F30F05E06866F3BC
:1046A0001F45C0F80C511021204600F06BFA20463F
:1046B00000F04CFA206906612069466121694FF0DB
:1046C000FF3088612069C66100214FF09040FF23D0
:1046D00012E000BF04EB8105D5F818C0DCF800201B
:1046E000002A01DA024600E03246CCF80020AA692E
:1046F0001661AA699360491C62788A42EAD800224E
:1047000012E000BF04EB8205D5F854C0DCF80010BD
:10471000002901DA014600E03146CCF80010696D4D
:104720000E61696D8B60521C61789142EAD82069F4
:10473000016941F480710161E078012809D1032009
:10474000402161F38A0040F4803061F359402169CF
:104750000863204600F0CAF93846BDE8F081000041
:10476000F8B5002704463E460097124D0320FFF798
:104770001CFFE06800690090761CAE4201D9002061
:10478000F8BD00980028F1DA0099002041F00101FD
:1047900000910099E2681161E1680A690092401C89
:1047A000A84202D8009AD207F7D10320FFF7FDFEF6
:1047B0003846F8BD400D0300C0680021826822F031
:1047C000010282600846704710B5016900238C68B9
:1047D00082691168C4F341042CB1012C03D0022C6E
:1047E00004D0032C05D16FF30A0102E06FF30A0134
:1047F000C91C11600069416841F48071416018462C
:1048000010BD0000F0B54A7800254C69012A15D08A
:104810000A7800EB82035A6D16681269DCB38C6863
:10482000C1F8144064F306025B6D22F4C01202F575
:1048300000221A61C278012A30D035E083691F68EE
:104840001A6934B18E68B44206D966F306024E6125
:1048500004E022F07F0201E064F3060222F4C012B9
:1048600002F500221A61C278012A05D10C780A6982
:1048700000EB8404A469626147F004421A60C278C4
:10488000CAB94A69BAB10A78006901219140426BFC
:104890000A4342630FE0FFE70C7AC3E70B780A692B
:1048A00000EB83035B6D5A61097846F0044200EB2C
:1048B0008100406D02602846F0BD0000426D07494E
:1048C0001161C178012908D1426D00F2CC515161CA
:1048D000406D01684FF0802101607047180008C0EA
:1048E000F0B50E7800254F780122B2402B4600EB40
:1048F0008604012F19D0646D62F31F4322681604E9
:104900000DD40E8966F30A02CE78897966F3934254
:1049100061F3995242F0805141F4004121600069F5
:10492000C1691943C1612846F0BDA46962F30F0350
:10493000E4E710B502464C780B78002002EB8302C6
:10494000012C09D0526D1368C97823F40013032990
:1049500004D0022902D003E09269F4E743F08053C7
:10496000136010BD30B50C7803464D78012200204D
:10497000A24003EB8401012D09D04C6D014662F386
:104980001F4120601A69D3698B43D36130BD8C69A4
:10499000014662F30F01F4E702464B7809780020E4
:1049A00002EB8101012B05D0496D0A6842F4001227
:1049B0000A6070478A691168002901DA41F0804174
:1049C00041F4001111607047F0B54B780A7800246B
:1049D00001264F6900EB8202012B15D0556D2B6823
:1049E0002A69002F62D08E6837447F1EB7FBF6F726
:1049F00067F3DC42C2F3C947774367F312022A61C7
:104A0000C278012A58D05DE095692B682A696FB198
:104A1000D1F808C067F3120267447F1EB7FBFCF7AA
:104A200067F3DC42CF78012F05D008E06FF3120264
:104A300066F3DC4203E022F0C04202F100522A6138
:104A4000C278012A0ED0CA78012A12D04A69C2B1AE
:104A50000A7896400269556B35435563CA78012A36
:104A600007D00EE00D780A6900EB8505AD696A6133
:104A7000F4E702699268C2F30D22D2070CD043F02A
:104A8000805343F004420B7800EB83039B691A6068
:104A9000CA78012A03D026E043F00053F1E78A8A5E
:104AA00093B20A78C96800F04EF91CE08F6867F38A
:104AB000120266F3DC42A2E70D780A6900EB850575
:104AC0006D6D6A61CA78012A06D14A7912B143F044
:104AD000005301E043F08053097843F0044200EBB7
:104AE0008100406D02602046F0BD000030B5C36813
:104AF000002211469A61C4686FF080436361C56803
:104B0000541E6C60C4686361C4680B4BA361C378B6
:104B100003B9102141F48721C06841F0081141F424
:104B2000401141F08041836941F004018B430B4304
:104B30008361104630BD000000080080C06800217D
:104B4000826842F0010282600846704738B500244E
:104B500021460094009A42F010020092009AC36825
:104B60001A61074AC06803690093491C914202D840
:104B7000009BDB06F7D40320FFF717FD204638BD66
:104B8000400D030038B5002422460094009B43F0FA
:104B900020030093009B61F38A1300930099C3687C
:104BA00019610749C06803690093521C8A4202D800
:104BB000009B9B06F7D40320FFF7F7FC204638BD87
:104BC000400D03000146002009698968C1F34101D5
:104BD00039B1012903D0022905D0032900D10220CF
:104BE000704703207047012070470269106861F325
:104BF000010010607047C068406910F0010F01D0DB
:104C00000020704701207047C068416980690840F2
:104C1000704700698169C069084080B270470069C7
:104C20008169C0690840000C704700EB8101496D43
:104C300089680069406908407047034610B5002044
:104C4000D21C9208D3F8D03003E01C6841F8044B22
:104C5000401C9042F9D3084610BD000070B50022F8
:104C60000125C270402685701446134686800129AE
:104C700001D061B114E0C5720821017004214FF028
:104C8000A04241709115C1800221017208E0C372F7
:104C90000C210170062141701F4A4FF4A061C180B0
:104CA00002F50061C0E9032100210AE002EB411393
:104CB00003F5106600EB810503F53063AE61491C16
:104CC0006B6543788B42F1D802F5806141614031D8
:104CD000C0F8CC10002108E002EB411300EB810585
:104CE00003F5A063491CC5F8903003788B42F3D8D4
:104CF000002108E002EB013300EB810503F580534E
:104D0000491CC5F8D03003788B42F3D802F56062B5
:104D1000C0F80C21204670BD0000044010B5C068EA
:104D20000024C268012922F0C04201D019B104E078
:104D300042F0005201E042F08042C2603220FFF7B0
:104D400031FC204610BD30B5C47800256CB900EBAD
:104D500082000024DB1C9B08D0F8D00003E051F84F
:104D6000042B0260641C9C42F9D3284630BDFEE748
:104D700070B50D46044606E028884006FCD5284656
:104D8000FEF762FE641C21780029F5D170BD000099
:104D9000042822DD124A202802D021281DD10BE050
:104DA000CB78086863F31F60106008791071487948
:104DB00050718879907110E0107808701088000A9E
:104DC00048701068000C88701068000EC870107968
:104DD00008715079487190798871002070470000FF
:104DE0000C00002010B500F00DFB024901200870F6
:104DF000002010BD08000020F0B50023094A0A4D2C
:104E00004FF4006C1E4608E01468C75C2F55641C04
:104E10001460644500D116605B1C8B42F4D3002003
:104E2000F0BD0000E0000020620900200020704773
:104E30000020704770B50E4D04212846FDF746F955
:104E40009F20FEF7B3FBFEF79FFB0404FEF79CFBDD
:104E50004FF6FF7101EA00232343FEF795FB40EA7A
:104E6000030404212846FDF733F9204670BD0000F5
:104E7000000C024003B401984100009850EAC120A0
:104E800018BF04204A0D18BF40F0010040F2FF7225
:104E9000B2EB515F08BF40F00200012808BF0520B7
:104EA00002B070470000000070B5DD4B00242DED0E
:104EB000020B2DED108BDDE91010984205DA20F081
:104EC00000429A4201D809D141B19DED100B53EC3B
:104ED000102B51EC100B00F07FFC1CE0B0F5801F94
:104EE00031DA11439FEDD08B0BD0002819DA012065
:104EF000FBF7C9FB53EC182B51EC180B00F020FD0D
:104F000009E00220FBF7BFFB53EC182B9FEDC80B09
:104F100051EC100BF2E7BDEC108B02B041EC100B22
:104F200070BD6FF035049FEDC40B53EC102B9DED5D
:104F3000100B51EC100B00F02BFF41EC100B10EE9E
:104F4000900A8DED100B04EB2051C0F31304BC4804
:104F5000A1F2FF31204400F4801080F07F6282F0E3
:104F60004052224301EB20559FEDB70B119253ECB9
:104F7000102B9DED100B51EC100B01F013F841ECD0
:104F8000180BA01CC0F313009FEDB1DB9FEDB2EB3B
:104F9000B34E7E44032867D296ED000B51EC180BFC
:104FA00053EC102B00F024FE1DD1002D01BF96ED17
:104FB000000BBDEC108B02B070BD284600F081FEE6
:104FC00041EC180B53EC1D2B00F0E2FE41EC190BE9
:104FD00053EC1E2B51EC180B00F0DAFE53EC192B9E
:104FE00000F0FAFB97E79FEDA00B51EC180B53EC88
:104FF000102B00F0CDFE9FED9E1B53EC112B00F00B
:10500000C5FF41EC190B53EC182B51EC180B00F0B9
:10501000BFFE53EC192B00F0BBFE41EC1A0B002D28
:1050200004BF53EC1A2B51EC180B7CD0284600F02F
:1050300048FE41EC190B53EC1D2B00F0A9FE53EC7C
:105040001A2B00F0A3FF53EC182B00F0ABFF41EC40
:10505000180B53EC1E2B51EC190B00F099FE53EC7E
:10506000182B00F09FFF56E79FED830B51EC180BB8
:1050700053EC102B00F0B0FB41EC100B51EC180B73
:1050800053EC102B00F05CFC41EC190B284600F0AF
:1050900018FE41EC1B0B53EC192B51EC190B00F0D3
:1050A00077FE41EC1A0B764853EC1A2B261851EC7C
:1050B0001A0B00F06DFE41EC1F0B7248C4F1510455
:1050C00004F5D724B0EE4F0AF0EE6F0A03217844BE
:1050D00000F0DCF853EC1F2B51EC100B00F058FEE5
:1050E00041EC1C0B6848B0EE4F0AF0EE6F0A042149
:1050F000784400F0CBF853EC1A2B51EC100B00F075
:1051000047FE344353EC1C2B00F066FB41EC1C0BB8
:10511000002C4EDD9FED560B51EC180B53EC102B71
:1051200000F036FE00E02EE053EC182B00F030FECD
:1051300041EC1A0B55B353EC1D2B51EC1B0B00F03B
:1051400027FE41EC1D0B53EC1C2B51EC1A0B00F00D
:1051500043FB53EC192B00F01BFE53EC1D2B00F00E
:105160003BFB53EC1A2B00F011FF53EC182B00F013
:1051700019FF41EC180B53EC1E2B51EC1B0B00F0EC
:1051800007FE53EC182B00F00DFFC4E653EC1C2B6C
:1051900051EC1A0B00F020FB53EC192B00F0F8FD3A
:1051A00053EC1A2B00F0F2FE53EC182B00F0EEFE3D
:1051B000B1E635B353EC1D2B51EC1B0B00F0E8FDB1
:1051C00041EC1A0B53EC1C2B51EC180B00F0EAFECF
:1051D00053EC192B00F0DCFD53EC1A2B00F0E2FE2F
:1051E00053EC182B00F0DEFE41EC180B53EC1E2B99
:1051F00051EC1B0B00F0CCFD53EC182B00F0D2FE51
:1052000089E653EC1C2B51EC180B00F0CBFE53EC51
:10521000192B00F0BDFD53EC182B00F0B7FE7AE619
:105220000000F07F0000000000000000000000000F
:10523000000000000000F0BF00000000000050432C
:10524000645F090000000000000000000000F03F63
:10525000763C7935EF39EA3D0000E0FE422EE63F2C
:105260006A1E000000000000555555555555D53FA4
:10527000000000000000E03F0000000000000040CF
:1052800086EBF9FFF61C0000EC1C000070B504462C
:105290002DED028B4D1E00EBC500B0EE408AF0EE06
:1052A000608A90ED000B35F0060017D053EC182BF8
:1052B00051EC100B00F06CFD41EC100B6D1E04EB7B
:1052C000C50090ED001B51EC100B53EC112B00F0BE
:1052D00083FA41EC100B35F00600E7D1022D36D0F1
:1052E000042D1CD0062D1CBFBDEC028B70BD53ECF1
:1052F000182B51EC100B00F04BFD94ED0A1B53ECF6
:10530000112B00F069FA53EC182B00F041FD94EDDD
:10531000080B53EC102B00F05FFA41EC100B53EC30
:10532000182B51EC100B00F033FD94ED060B53ECF1
:10533000102B00F051FA53EC182B00F029FD94EDDE
:10534000041B53EC112B00F047FA41EC100B53EC0B
:10535000182B51EC100B00F01BFD94ED020B53ECDD
:10536000102B00F039FA53EC182B00F011FD94EDDE
:10537000000B53EC102B00F02FFABDEC028B41EC2C
:10538000100B70BD30380A2801D201207047002070
:105390007047000070B504461546084328D0202108
:1053A0001448FCF795FE144E4FF002013046E5B16B
:1053B000FCF78EFE01213046FCF78AFE0F4D0120DE
:1053C00001466C810E4C28732046FEF791F90422A9
:1053D00000212046FEF77EF95FF00300FCF704FE93
:1053E000287B0128FAD0002070BDFCF76FFEE1E7B2
:1053F000012070BD00080240000402406412002039
:105400000000014070B50D4606460024FA21084808
:10541000FBF706F9064803E0315D0155641CE4B270
:10542000AC42F9D32146BDE870400148FFF7E4BC27
:1054300028080020FEF7F6F9024C30252570FDF70C
:1054400083F8FBE72808002070B53E4D06462DED99
:10545000028B01249FED398B2846FCF70FFA0221BD
:105460002846FCF7A4F90028F9D02846FCF79CF957
:1054700000F03EFC53EC182B00F0AEF941EC180B99
:10548000641C0A2CE8DD51EC180B9FED2F0B53EC3C
:10549000102B00F055FA00F0E7FB2D490880088832
:1054A00000F026FC41EC100B53EC102B9FED290B68
:1054B00051EC100B00F044FA9FED288B53EC182BA5
:1054C00000F070FD41EC100B53EC102B9FED250B01
:1054D00051EC100B00F034FA9FED241B53EC112B10
:1054E00000F02EFA41EC100BFFF7DEFC9FED211BC4
:1054F00051EC100B53EC112B00F022FA9FED1F1B07
:1055000053EC112B00F068F941EC100B51EC180B27
:1055100053EC102B00F014FA41EC100B012E09D0C3
:1055200051EC100B9FED171B53EC112B00F03AFDC3
:1055300041EC100BBDEC028B70BD000000000000C0
:105540000000000000200140000000000000244096
:1055500080010020000000000000B04000000000BA
:105560000000F03F000000000088C3400000000081
:10557000004CDD400000000000DCAE4083DBB5DC09
:10558000E1796B3F666666666612714070B50F49D9
:105590000A78012A18D10A69002652B10B46402A1E
:1055A000DD68ACB207D940234035403AC1E9035227
:1055B00005E00E7008E093B22A44C1E903260449CD
:1055C0000A198121FCF7E1FA002070BDD800002003
:1055D0006209002010B5044601EB810004EBC00015
:1055E000B0F88C0381B20648026906489047402310
:1055F000044A01212046FCF787FA002010BD000074
:10560000140000202209002010B504468121FCF777
:105610002BFA01212046FCF727FA82212046FCF7CD
:1056200023FA024840688047002010BD1400002083
:1056300010B5074C6069FF2807D00649A2698B683E
:1056400004F120019847FF206061002010BD000098
:10565000D80000201400002010B504460223402288
:105660008121FCF733FA0223402201212046FCF776
:105670002DFA0323082282212046FCF727FA084945
:1056800002200871002048710648016888474023BD
:10569000054A01212046FCF737FA002010BD000022
:1056A000480000201400002022090020064910B5FF
:1056B000CA69521CCA61062A03D10022CA61FCF7DA
:1056C00009FD002010BD0000D800002070B50C4678
:1056D0000546294920783A2210F06006A1F13103ED
:1056E00022D0202E05D021462846FEF7CAF90220F6
:1056F00070BD2249E2888E688AB10006607806D5BE
:105700001D491139B0471C49E28811391FE0C3E92E
:105710000502194928461139FEF7C1F927E0002290
:1057200060781146B04722E06078062804D00A2845
:1057300011D00B281BD112E060882123B3EB102F6E
:1057400005D10D49E28809313A2A00D93A22284682
:10575000FEF7C6F90BE0084901222D39F7E760880A
:1057600010F0FF0F05D021462846FEF78AF90020E9
:1057700070BDC0B25860FAE7090100201400002093
:1057800010B500290AD00878002807D005487844C9
:10579000FBF7EAFB002801D0002010BD0248784446
:1057A00010BD00002E1700002617000010B50029BC
:1057B0000AD00878002807D005487844FBF7D4FBC6
:1057C000002801D0002010BD0248784410BD000020
:1057D0001E1700001617000010B591EA030F48BF0E
:1057E00083F0004300F1E683841A71EB030C05D2C9
:1057F000121943EB0C03001B61EB0C01DFF824E1F1
:105800004FEA1154A4EB135C1EEA430F18BF9EEA43
:10581000445F73D023EA0E03DCF1200E21EA045129
:1058200043F4801332D322FA0CFE10EB0E0023FA5D
:105830000CFE41EB0E01CCF1200E03FA0EFE10EB34
:105840000E0051F10001B1F5801FCCF1200E32D2D3
:1058500001EB045112FA0EF2BDE8104058BF704738
:10586000401C38BF5FEA420218BF7047002814BFCF
:1058700020F0010041F100014FEA410313F5001F40
:1058800038BF7047A1F1C04100F07ABB012A43EB59
:105890000302ACF1200CDCF11F0E32BF4FF0000E02
:1058A00023FA0CF310EB030041EB0451B4EB115F4E
:1058B000D0D0A1EB045101F5801149085FEA300016
:1058C00001EB04510ED350F1000038BF12FA0EFE66
:1058D00008D1BDE81040C9E7401C38BF5FEA42026A
:1058E000CAD1C3E7BDE810404FEA410313F5001FDA
:1058F00038BF7047A1F1C04100F042BB9EEA445F4F
:1059000008D011EA5E0FBDE8104004BF01F000416D
:1059100000207047BDE8104070B500F0E3FA00BF0A
:1059200064FBBE3E0000E0FF491058BFC1F140419A
:105930005B1058BFC3F140438B42EFF300807047C8
:105940002DE9C04130B4DFF8A0C23CEA111418BF01
:105950003CEA131400F0EC8081EA03051CEA111400
:1059600044EAD57418BF1CEA131500F0C780A4EBF5
:1059700005044FF0004545EAC12145EAC32341EA49
:10598000505143EA525304F17F74994204F50034B4
:105990004FEAC0204FEAC22208BF904200F09C802C
:1059A0004FEA13650FF24016765D4FEA134506FB8A
:1059B00005F7C7F1807706FB07F74FEAD737A7FB54
:1059C00003687642C8F58038A7FB06CE38BFA8F139
:1059D000010807FB08E64FF0000EA6FB028CE6FB71
:1059E00003CEDCF1000CCEF1004E38BFAEF1010E5B
:1059F000A6FB0C584FF000074FF00005E6FB0E87A2
:105A0000A1FB08C6A0FB07CE16EB0E0645F100056C
:105A1000E1FB076515F1E04E7EBFA4F580345FEA37
:105A200046066D4116F1800745F100054FEA17273C
:105A30004FEA066647EA0567A6F1DE46B6F1805FE3
:105A40004FEA15251FD9384624F0010C05EBC47127
:105A5000BCF1FE6F01EB0C1102D8F0BCBDE8008177
:105A600024425CBF01F5801E9EEAC47F02D4F0BCD4
:105A7000BDE80081244238D4F0BCA1F1C041BDE8AA
:105A8000004100F07DBA4FEAD22242EA43524FEA87
:105A9000D323A7FB02864FEAD02040EA415007FB00
:105AA00003661EEA0E0F4FEAD12105FB026658BFBE
:105AB000A6EB0056B6EB00564FEA520E4EEAC37EF6
:105AC00018EB0E0E56EB530EBDD518EB02085E41D7
:105AD0007F1C55F10005B6E74FF480154FF0000725
